:020000040000FA
:020000002028B6
:0800080005280C1F09000C1370
:10001000831203131E08831203138700831603132E
:100020001E088312031386001E08993C031D1B2023
:10003000192008140800081008001F154A2009009C
:1000400083160313FF308500860187018801803005
:100050009F0083120313FF3085008601870188010A
:1000600083120313D1309F004A2083120313831697
:1000700003130C1783160313831203130C13831239
:10008000031383120313C0308B00831203131F1555
:100090004A204928FF30A000FF30A100A10B4E28C4
:0600A000A00B4C28080033
:00000001FF
